{
  "_format": "hh-sol-artifact-1",
  "contractName": "Dulligan",
  "sourceName": "contracts/Dulligan.sol",
  "abi": [
    {
      "inputs": [],
      "stateMutability": "nonpayable",
      "type": "constructor"
    },
    {
      "anonymous": false,
      "inputs": [
        {
          "indexed": true,
          "internalType": "address",
          "name": "owner",
          "type": "address"
        },
        {
          "indexed": true,
          "internalType": "address",
          "name": "approved",
          "type": "address"
        },
        {
          "indexed": true,
          "internalType": "uint256",
          "name": "tokenId",
          "type": "uint256"
        }
      ],
      "name": "Approval",
      "type": "event"
    },
    {
      "anonymous": false,
      "inputs": [
        {
          "indexed": true,
          "internalType": "address",
          "name": "owner",
          "type": "address"
        },
        {
          "indexed": true,
          "internalType": "address",
          "name": "operator",
          "type": "address"
        },
        {
          "indexed": false,
          "internalType": "bool",
          "name": "approved",
          "type": "bool"
        }
      ],
      "name": "ApprovalForAll",
      "type": "event"
    },
    {
      "anonymous": false,
      "inputs": [
        {
          "indexed": true,
          "internalType": "address",
          "name": "from",
          "type": "address"
        },
        {
          "indexed": true,
          "internalType": "address",
          "name": "to",
          "type": "address"
        },
        {
          "indexed": true,
          "internalType": "uint256",
          "name": "tokenId",
          "type": "uint256"
        }
      ],
      "name": "Transfer",
      "type": "event"
    },
    {
      "inputs": [
        {
          "internalType": "address",
          "name": "to",
          "type": "address"
        },
        {
          "internalType": "uint256",
          "name": "tokenId",
          "type": "uint256"
        }
      ],
      "name": "approve",
      "outputs": [],
      "stateMutability": "nonpayable",
      "type": "function"
    },
    {
      "inputs": [
        {
          "internalType": "address",
          "name": "owner",
          "type": "address"
        }
      ],
      "name": "balanceOf",
      "outputs": [
        {
          "internalType": "uint256",
          "name": "",
          "type": "uint256"
        }
      ],
      "stateMutability": "view",
      "type": "function"
    },
    {
      "inputs": [
        {
          "internalType": "uint256",
          "name": "tokenId",
          "type": "uint256"
        }
      ],
      "name": "getApproved",
      "outputs": [
        {
          "internalType": "address",
          "name": "",
          "type": "address"
        }
      ],
      "stateMutability": "view",
      "type": "function"
    },
    {
      "inputs": [
        {
          "internalType": "address",
          "name": "owner",
          "type": "address"
        },
        {
          "internalType": "address",
          "name": "operator",
          "type": "address"
        }
      ],
      "name": "isApprovedForAll",
      "outputs": [
        {
          "internalType": "bool",
          "name": "",
          "type": "bool"
        }
      ],
      "stateMutability": "view",
      "type": "function"
    },
    {
      "inputs": [
        {
          "internalType": "string",
          "name": "tokenURI",
          "type": "string"
        }
      ],
      "name": "mint",
      "outputs": [
        {
          "internalType": "uint256",
          "name": "",
          "type": "uint256"
        }
      ],
      "stateMutability": "nonpayable",
      "type": "function"
    },
    {
      "inputs": [],
      "name": "name",
      "outputs": [
        {
          "internalType": "string",
          "name": "",
          "type": "string"
        }
      ],
      "stateMutability": "view",
      "type": "function"
    },
    {
      "inputs": [
        {
          "internalType": "uint256",
          "name": "tokenId",
          "type": "uint256"
        }
      ],
      "name": "ownerOf",
      "outputs": [
        {
          "internalType": "address",
          "name": "",
          "type": "address"
        }
      ],
      "stateMutability": "view",
      "type": "function"
    },
    {
      "inputs": [
        {
          "internalType": "address",
          "name": "from",
          "type": "address"
        },
        {
          "internalType": "address",
          "name": "to",
          "type": "address"
        },
        {
          "internalType": "uint256",
          "name": "tokenId",
          "type": "uint256"
        }
      ],
      "name": "safeTransferFrom",
      "outputs": [],
      "stateMutability": "nonpayable",
      "type": "function"
    },
    {
      "inputs": [
        {
          "internalType": "address",
          "name": "from",
          "type": "address"
        },
        {
          "internalType": "address",
          "name": "to",
          "type": "address"
        },
        {
          "internalType": "uint256",
          "name": "tokenId",
          "type": "uint256"
        },
        {
          "internalType": "bytes",
          "name": "data",
          "type": "bytes"
        }
      ],
      "name": "safeTransferFrom",
      "outputs": [],
      "stateMutability": "nonpayable",
      "type": "function"
    },
    {
      "inputs": [
        {
          "internalType": "address",
          "name": "operator",
          "type": "address"
        },
        {
          "internalType": "bool",
          "name": "approved",
          "type": "bool"
        }
      ],
      "name": "setApprovalForAll",
      "outputs": [],
      "stateMutability": "nonpayable",
      "type": "function"
    },
    {
      "inputs": [
        {
          "internalType": "bytes4",
          "name": "interfaceId",
          "type": "bytes4"
        }
      ],
      "name": "supportsInterface",
      "outputs": [
        {
          "internalType": "bool",
          "name": "",
          "type": "bool"
        }
      ],
      "stateMutability": "view",
      "type": "function"
    },
    {
      "inputs": [],
      "name": "symbol",
      "outputs": [
        {
          "internalType": "string",
          "name": "",
          "type": "string"
        }
      ],
      "stateMutability": "view",
      "type": "function"
    },
    {
      "inputs": [
        {
          "internalType": "uint256",
          "name": "tokenId",
          "type": "uint256"
        }
      ],
      "name": "tokenURI",
      "outputs": [
        {
          "internalType": "string",
          "name": "",
          "type": "string"
        }
      ],
      "stateMutability": "view",
      "type": "function"
    },
    {
      "inputs": [],
      "name": "totalSupply",
      "outputs": [
        {
          "internalType": "uint256",
          "name": "",
          "type": "uint256"
        }
      ],
      "stateMutability": "view",
      "type": "function"
    },
    {
      "inputs": [
        {
          "internalType": "address",
          "name": "from",
          "type": "address"
        },
        {
          "internalType": "address",
          "name": "to",
          "type": "address"
        },
        {
          "internalType": "uint256",
          "name": "tokenId",
          "type": "uint256"
        }
      ],
      "name": "transferFrom",
      "outputs": [],
      "stateMutability": "nonpayable",
      "type": "function"
    }
  ],
  "bytecode": "0x60806040523480156200001157600080fd5b506040518060400160405280600881526020017f44756c6c6967616e0000000000000000000000000000000000000000000000008152506040518060400160405280600481526020017f44554c4c00000000000000000000000000000000000000000000000000000000815250816000908051906020019062000096929190620000b8565b508060019080519060200190620000af929190620000b8565b505050620001cd565b828054620000c69062000168565b90600052602060002090601f016020900481019282620000ea576000855562000136565b82601f106200010557805160ff191683800117855562000136565b8280016001018555821562000136579182015b828111156200013557825182559160200191906001019062000118565b5b50905062000145919062000149565b5090565b5b80821115620001645760008160009055506001016200014a565b5090565b600060028204905060018216806200018157607f821691505b602082108114156200019857620001976200019e565b5b50919050565b7f4e487b7100000000000000000000000000000000000000000000000000000000600052602260045260246000fd5b612b4b80620001dd6000396000f3fe608060405234801561001057600080fd5b50600436106100f55760003560e01c80636352211e11610097578063b88d4fde11610066578063b88d4fde14610284578063c87b56dd146102a0578063d85d3d27146102d0578063e985e9c514610300576100f5565b80636352211e146101ea57806370a082311461021a57806395d89b411461024a578063a22cb46514610268576100f5565b8063095ea7b3116100d3578063095ea7b31461017857806318160ddd1461019457806323b872dd146101b257806342842e0e146101ce576100f5565b806301ffc9a7146100fa57806306fdde031461012a578063081812fc14610148575b600080fd5b610114600480360381019061010f9190611eff565b610330565b60405161012191906122ba565b60405180910390f35b610132610412565b60405161013f91906122d5565b60405180910390f35b610162600480360381019061015d9190611f92565b6104a4565b60405161016f9190612253565b60405180910390f35b610192600480360381019061018d9190611ec3565b6104ea565b005b61019c610602565b6040516101a99190612477565b60405180910390f35b6101cc60048036038101906101c79190611dbd565b610613565b005b6101e860048036038101906101e39190611dbd565b610673565b005b61020460048036038101906101ff9190611f92565b610693565b6040516102119190612253565b60405180910390f35b610234600480360381019061022f9190611d58565b61071a565b6040516102419190612477565b60405180910390f35b6102526107d2565b60405161025f91906122d5565b60405180910390f35b610282600480360381019061027d9190611e87565b610864565b005b61029e60048036038101906102999190611e0c565b61087a565b005b6102ba60048036038101906102b59190611f92565b6108dc565b6040516102c791906122d5565b60405180910390f35b6102ea60048036038101906102e59190611f51565b6109ef565b6040516102f79190612477565b60405180910390f35b61031a60048036038101906103159190611d81565b610a26565b60405161032791906122ba565b60405180910390f35b60007f80ac58cd000000000000000000000000000000000000000000000000000000007bffffffffffffffffffffffffffffffffffffffffffffffffffffffff1916827bffffffffffffffffffffffffffffffffffffffffffffffffffffffff191614806103fb57507f5b5e139f000000000000000000000000000000000000000000000000000000007bffffffffffffffffffffffffffffffffffffffffffffffffffffffff1916827bffffffffffffffffffffffffffffffffffffffffffffffffffffffff1916145b8061040b575061040a82610aba565b5b9050919050565b6060600080546104219061269c565b80601f016020809104026020016040519081016040528092919081815260200182805461044d9061269c565b801561049a5780601f1061046f5761010080835404028352916020019161049a565b820191906000526020600020905b81548152906001019060200180831161047d57829003601f168201915b5050505050905090565b60006104af82610b24565b6004600083815260200190815260200160002060009054906101000a900473ffffffffffffffffffffffffffffffffffffffff169050919050565b60006104f582610693565b90508073ffffffffffffffffffffffffffffffffffffffff168373ffffffffffffffffffffffffffffffffffffffff161415610566576040517f08c379a000000000000000000000000000000000000000000000000000000000815260040161055d90612437565b60405180910390fd5b8073ffffffffffffffffffffffffffffffffffffffff16610585610b6f565b73ffffffffffffffffffffffffffffffffffffffff1614806105b457506105b3816105ae610b6f565b610a26565b5b6105f3576040517f08c379a00000000000000000000000000000000000000000000000000000000081526004016105ea90612457565b60405180910390fd5b6105fd8383610b77565b505050565b600061060e6007610c30565b905090565b61062461061e610b6f565b82610c3e565b610663576040517f08c379a000000000000000000000000000000000000000000000000000000000815260040161065a906122f7565b60405180910390fd5b61066e838383610cd3565b505050565b61068e8383836040518060200160405280600081525061087a565b505050565b60008061069f83610fcd565b9050600073ffffffffffffffffffffffffffffffffffffffff168173ffffffffffffffffffffffffffffffffffffffff161415610711576040517f08c379a000000000000000000000000000000000000000000000000000000000815260040161070890612417565b60405180910390fd5b80915050919050565b60008073ffffffffffffffffffffffffffffffffffffffff168273ffffffffffffffffffffffffffffffffffffffff16141561078b576040517f08c379a0000000000000000000000000000000000000000000000000000000008152600401610782906123b7565b60405180910390fd5b600360008373ffffffffffffffffffffffffffffffffffffffff1673ffffffffffffffffffffffffffffffffffffffff168152602001908152602001600020549050919050565b6060600180546107e19061269c565b80601f016020809104026020016040519081016040528092919081815260200182805461080d9061269c565b801561085a5780601f1061082f5761010080835404028352916020019161085a565b820191906000526020600020905b81548152906001019060200180831161083d57829003601f168201915b5050505050905090565b61087661086f610b6f565b838361100a565b5050565b61088b610885610b6f565b83610c3e565b6108ca576040517f08c379a00000000000000000000000000000000000000000000000000000000081526004016108c1906122f7565b60405180910390fd5b6108d684848484611177565b50505050565b60606108e782610b24565b60006006600084815260200190815260200160002080546109079061269c565b80601f01602080910402602001604051908101604052809291908181526020018280546109339061269c565b80156109805780601f1061095557610100808354040283529160200191610980565b820191906000526020600020905b81548152906001019060200180831161096357829003601f168201915b5050505050905060006109916111d3565b90506000815114156109a75781925050506109ea565b6000825111156109dc5780826040516020016109c492919061222f565b604051602081830303815290604052925050506109ea565b6109e5846111ea565b925050505b919050565b60006109fb6007611252565b6000610a076007610c30565b9050610a133382611268565b610a1d8184611486565b80915050919050565b6000600560008473ffffffffffffffffffffffffffffffffffffffff1673ffffffffffffffffffffffffffffffffffffffff16815260200190815260200160002060008373ffffffffffffffffffffffffffffffffffffffff1673ffffffffffffffffffffffffffffffffffffffff16815260200190815260200160002060009054906101000a900460ff16905092915050565b60007f01ffc9a7000000000000000000000000000000000000000000000000000000007bffffffffffffffffffffffffffffffffffffffffffffffffffffffff1916827bffffffffffffffffffffffffffffffffffffffffffffffffffffffff1916149050919050565b610b2d816114fa565b610b6c576040517f08c379a0000000000000000000000000000000000000000000000000000000008152600401610b6390612417565b60405180910390fd5b50565b600033905090565b816004600083815260200190815260200160002060006101000a81548173ffffffffffffffffffffffffffffffffffffffff021916908373ffffffffffffffffffffffffffffffffffffffff160217905550808273ffffffffffffffffffffffffffffffffffffffff16610bea83610693565b73ffffffffffffffffffffffffffffffffffffffff167f8c5be1e5ebec7d5bd14f71427d1e84f3dd0314c0f7b2291e5b200ac8c7c3b92560405160405180910390a45050565b600081600001549050919050565b600080610c4a83610693565b90508073ffffffffffffffffffffffffffffffffffffffff168473ffffffffffffffffffffffffffffffffffffffff161480610c8c5750610c8b8185610a26565b5b80610cca57508373ffffffffffffffffffffffffffffffffffffffff16610cb2846104a4565b73ffffffffffffffffffffffffffffffffffffffff16145b91505092915050565b8273ffffffffffffffffffffffffffffffffffffffff16610cf382610693565b73ffffffffffffffffffffffffffffffffffffffff1614610d49576040517f08c379a0000000000000000000000000000000000000000000000000000000008152600401610d4090612337565b60405180910390fd5b600073ffffffffffffffffffffffffffffffffffffffff168273ffffffffffffffffffffffffffffffffffffffff161415610db9576040517f08c379a0000000000000000000000000000000000000000000000000000000008152600401610db090612377565b60405180910390fd5b610dc6838383600161153b565b8273ffffffffffffffffffffffffffffffffffffffff16610de682610693565b73ffffffffffffffffffffffffffffffffffffffff1614610e3c576040517f08c379a0000000000000000000000000000000000000000000000000000000008152600401610e3390612337565b60405180910390fd5b6004600082815260200190815260200160002060006101000a81549073ffffffffffffffffffffffffffffffffffffffff02191690556001600360008573ffffffffffffffffffffffffffffffffffffffff1673ffffffffffffffffffffffffffffffffffffffff168152602001908152602001600020600082825403925050819055506001600360008473ffffffffffffffffffffffffffffffffffffffff1673ffffffffffffffffffffffffffffffffffffffff16815260200190815260200160002060008282540192505081905550816002600083815260200190815260200160002060006101000a81548173ffffffffffffffffffffffffffffffffffffffff021916908373ffffffffffffffffffffffffffffffffffffffff160217905550808273ffffffffffffffffffffffffffffffffffffffff168473ffffffffffffffffffffffffffffffffffffffff167fddf252ad1be2c89b69c2b068fc378daa952ba7f163c4a11628f55a4df523b3ef60405160405180910390a4610fc88383836001611661565b505050565b60006002600083815260200190815260200160002060009054906101000a900473ffffffffffffffffffffffffffffffffffffffff169050919050565b8173ffffffffffffffffffffffffffffffffffffffff168373ffffffffffffffffffffffffffffffffffffffff161415611079576040517f08c379a000000000000000000000000000000000000000000000000000000000815260040161107090612397565b60405180910390fd5b80600560008573ffffffffffffffffffffffffffffffffffffffff1673ffffffffffffffffffffffffffffffffffffffff16815260200190815260200160002060008473ffffffffffffffffffffffffffffffffffffffff1673ffffffffffffffffffffffffffffffffffffffff16815260200190815260200160002060006101000a81548160ff0219169083151502179055508173ffffffffffffffffffffffffffffffffffffffff168373ffffffffffffffffffffffffffffffffffffffff167f17307eab39ab6107e8899845ad3d59bd9653f200f220920489ca2b5937696c318360405161116a91906122ba565b60405180910390a3505050565b611182848484610cd3565b61118e84848484611667565b6111cd576040517f08c379a00000000000000000000000000000000000000000000000000000000081526004016111c490612317565b60405180910390fd5b50505050565b606060405180602001604052806000815250905090565b60606111f582610b24565b60006111ff6111d3565b9050600081511161121f576040518060200160405280600081525061124a565b80611229846117fe565b60405160200161123a92919061222f565b6040516020818303038152906040525b915050919050565b6001816000016000828254019250508190555050565b600073ffffffffffffffffffffffffffffffffffffffff168273ffffffffffffffffffffffffffffffffffffffff1614156112d8576040517f08c379a00000000000000000000000000000000000000000000000000000000081526004016112cf906123f7565b60405180910390fd5b6112e1816114fa565b15611321576040517f08c379a000000000000000000000000000000000000000000000000000000000815260040161131890612357565b60405180910390fd5b61132f60008383600161153b565b611338816114fa565b15611378576040517f08c379a000000000000000000000000000000000000000000000000000000000815260040161136f90612357565b60405180910390fd5b6001600360008473ffffffffffffffffffffffffffffffffffffffff1673ffffffffffffffffffffffffffffffffffffffff16815260200190815260200160002060008282540192505081905550816002600083815260200190815260200160002060006101000a81548173ffffffffffffffffffffffffffffffffffffffff021916908373ffffffffffffffffffffffffffffffffffffffff160217905550808273ffffffffffffffffffffffffffffffffffffffff16600073ffffffffffffffffffffffffffffffffffffffff167fddf252ad1be2c89b69c2b068fc378daa952ba7f163c4a11628f55a4df523b3ef60405160405180910390a4611482600083836001611661565b5050565b61148f826114fa565b6114ce576040517f08c379a00000000000000000000000000000000000000000000000000000000081526004016114c5906123d7565b60405180910390fd5b806006600084815260200190815260200160002090805190602001906114f5929190611b7c565b505050565b60008073ffffffffffffffffffffffffffffffffffffffff1661151c83610fcd565b73ffffffffffffffffffffffffffffffffffffffff1614159050919050565b600181111561165b57600073ffffffffffffffffffffffffffffffffffffffff168473ffffffffffffffffffffffffffffffffffffffff16146115cf5780600360008673ffffffffffffffffffffffffffffffffffffffff1673ffffffffffffffffffffffffffffffffffffffff16815260200190815260200160002060008282546115c791906125b2565b925050819055505b600073ffffffffffffffffffffffffffffffffffffffff168373ffffffffffffffffffffffffffffffffffffffff161461165a5780600360008573ffffffffffffffffffffffffffffffffffffffff1673ffffffffffffffffffffffffffffffffffffffff1681526020019081526020016000206000828254611652919061255c565b925050819055505b5b50505050565b50505050565b60006116888473ffffffffffffffffffffffffffffffffffffffff16611922565b156117f1578373ffffffffffffffffffffffffffffffffffffffff1663150b7a026116b1610b6f565b8786866040518563ffffffff1660e01b81526004016116d3949392919061226e565b602060405180830381600087803b1580156116ed57600080fd5b505af192505050801561171e57506040513d601f19601f8201168201806040525081019061171b9190611f28565b60015b6117a1573d806000811461174e576040519150601f19603f3d011682016040523d82523d6000602084013e611753565b606091505b50600081511415611799576040517f08c379a000000000000000000000000000000000000000000000000000000000815260040161179090612317565b60405180910390fd5b805181602001fd5b63150b7a0260e01b7bffffffffffffffffffffffffffffffffffffffffffffffffffffffff1916817bffffffffffffffffffffffffffffffffffffffffffffffffffffffff1916149150506117f6565b600190505b949350505050565b60606000600161180d84611945565b01905060008167ffffffffffffffff811115611852577f4e487b7100000000000000000000000000000000000000000000000000000000600052604160045260246000fd5b6040519080825280601f01601f1916602001820160405280156118845781602001600182028036833780820191505090505b509050600082602001820190505b600115611917578080600190039150507f3031323334353637383961626364656600000000000000000000000000000000600a86061a8153600a8581611901577f4e487b7100000000000000000000000000000000000000000000000000000000600052601260045260246000fd5b049450600085141561191257611917565b611892565b819350505050919050565b6000808273ffffffffffffffffffffffffffffffffffffffff163b119050919050565b600080600090507a184f03e93ff9f4daa797ed6e38ed64bf6a1f01000000000000000083106119c9577a184f03e93ff9f4daa797ed6e38ed64bf6a1f01000000000000000083816119bf577f4e487b7100000000000000000000000000000000000000000000000000000000600052601260045260246000fd5b0492506040810190505b6d04ee2d6d415b85acef81000000008310611a2c576d04ee2d6d415b85acef81000000008381611a22577f4e487b7100000000000000000000000000000000000000000000000000000000600052601260045260246000fd5b0492506020810190505b662386f26fc100008310611a8157662386f26fc100008381611a77577f4e487b7100000000000000000000000000000000000000000000000000000000600052601260045260246000fd5b0492506010810190505b6305f5e1008310611ad0576305f5e1008381611ac6577f4e487b7100000000000000000000000000000000000000000000000000000000600052601260045260246000fd5b0492506008810190505b6127108310611b1b576127108381611b11577f4e487b7100000000000000000000000000000000000000000000000000000000600052601260045260246000fd5b0492506004810190505b60648310611b645760648381611b5a577f4e487b7100000000000000000000000000000000000000000000000000000000600052601260045260246000fd5b0492506002810190505b600a8310611b73576001810190505b80915050919050565b828054611b889061269c565b90600052602060002090601f016020900481019282611baa5760008555611bf1565b82601f10611bc357805160ff1916838001178555611bf1565b82800160010185558215611bf1579182015b82811115611bf0578251825591602001919060010190611bd5565b5b509050611bfe9190611c02565b5090565b5b80821115611c1b576000816000905550600101611c03565b5090565b6000611c32611c2d846124b7565b612492565b905082815260208101848484011115611c4a57600080fd5b611c5584828561265a565b509392505050565b6000611c70611c6b846124e8565b612492565b905082815260208101848484011115611c8857600080fd5b611c9384828561265a565b509392505050565b600081359050611caa81612ab9565b92915050565b600081359050611cbf81612ad0565b92915050565b600081359050611cd481612ae7565b92915050565b600081519050611ce981612ae7565b92915050565b600082601f830112611d0057600080fd5b8135611d10848260208601611c1f565b91505092915050565b600082601f830112611d2a57600080fd5b8135611d3a848260208601611c5d565b91505092915050565b600081359050611d5281612afe565b92915050565b600060208284031215611d6a57600080fd5b6000611d7884828501611c9b565b91505092915050565b60008060408385031215611d9457600080fd5b6000611da285828601611c9b565b9250506020611db385828601611c9b565b9150509250929050565b600080600060608486031215611dd257600080fd5b6000611de086828701611c9b565b9350506020611df186828701611c9b565b9250506040611e0286828701611d43565b9150509250925092565b60008060008060808587031215611e2257600080fd5b6000611e3087828801611c9b565b9450506020611e4187828801611c9b565b9350506040611e5287828801611d43565b925050606085013567ffffffffffffffff811115611e6f57600080fd5b611e7b87828801611cef565b91505092959194509250565b60008060408385031215611e9a57600080fd5b6000611ea885828601611c9b565b9250506020611eb985828601611cb0565b9150509250929050565b60008060408385031215611ed657600080fd5b6000611ee485828601611c9b565b9250506020611ef585828601611d43565b9150509250929050565b600060208284031215611f1157600080fd5b6000611f1f84828501611cc5565b91505092915050565b600060208284031215611f3a57600080fd5b6000611f4884828501611cda565b91505092915050565b600060208284031215611f6357600080fd5b600082013567ffffffffffffffff811115611f7d57600080fd5b611f8984828501611d19565b91505092915050565b600060208284031215611fa457600080fd5b6000611fb284828501611d43565b91505092915050565b611fc4816125e6565b82525050565b611fd3816125f8565b82525050565b6000611fe482612519565b611fee818561252f565b9350611ffe818560208601612669565b6120078161278c565b840191505092915050565b600061201d82612524565b6120278185612540565b9350612037818560208601612669565b6120408161278c565b840191505092915050565b600061205682612524565b6120608185612551565b9350612070818560208601612669565b80840191505092915050565b6000612089602d83612540565b91506120948261279d565b604082019050919050565b60006120ac603283612540565b91506120b7826127ec565b604082019050919050565b60006120cf602583612540565b91506120da8261283b565b604082019050919050565b60006120f2601c83612540565b91506120fd8261288a565b602082019050919050565b6000612115602483612540565b9150612120826128b3565b604082019050919050565b6000612138601983612540565b915061214382612902565b602082019050919050565b600061215b602983612540565b91506121668261292b565b604082019050919050565b600061217e602e83612540565b91506121898261297a565b604082019050919050565b60006121a1602083612540565b91506121ac826129c9565b602082019050919050565b60006121c4601883612540565b91506121cf826129f2565b602082019050919050565b60006121e7602183612540565b91506121f282612a1b565b604082019050919050565b600061220a603d83612540565b915061221582612a6a565b604082019050919050565b61222981612650565b82525050565b600061223b828561204b565b9150612247828461204b565b91508190509392505050565b60006020820190506122686000830184611fbb565b92915050565b60006080820190506122836000830187611fbb565b6122906020830186611fbb565b61229d6040830185612220565b81810360608301526122af8184611fd9565b905095945050505050565b60006020820190506122cf6000830184611fca565b92915050565b600060208201905081810360008301526122ef8184612012565b905092915050565b600060208201905081810360008301526123108161207c565b9050919050565b600060208201905081810360008301526123308161209f565b9050919050565b60006020820190508181036000830152612350816120c2565b9050919050565b60006020820190508181036000830152612370816120e5565b9050919050565b6000602082019050818103600083015261239081612108565b9050919050565b600060208201905081810360008301526123b08161212b565b9050919050565b600060208201905081810360008301526123d08161214e565b9050919050565b600060208201905081810360008301526123f081612171565b9050919050565b6000602082019050818103600083015261241081612194565b9050919050565b60006020820190508181036000830152612430816121b7565b9050919050565b60006020820190508181036000830152612450816121da565b9050919050565b60006020820190508181036000830152612470816121fd565b9050919050565b600060208201905061248c6000830184612220565b92915050565b600061249c6124ad565b90506124a882826126ce565b919050565b6000604051905090565b600067ffffffffffffffff8211156124d2576124d161275d565b5b6124db8261278c565b9050602081019050919050565b600067ffffffffffffffff8211156125035761250261275d565b5b61250c8261278c565b9050602081019050919050565b600081519050919050565b600081519050919050565b600082825260208201905092915050565b600082825260208201905092915050565b600081905092915050565b600061256782612650565b915061257283612650565b9250827fffffffffffffffffffffffffffffffffffffffffffffffffffffffffffffffff038211156125a7576125a66126ff565b5b828201905092915050565b60006125bd82612650565b91506125c883612650565b9250828210156125db576125da6126ff565b5b828203905092915050565b60006125f182612630565b9050919050565b60008115159050919050565b60007fffffffff0000000000000000000000000000000000000000000000000000000082169050919050565b600073ffffffffffffffffffffffffffffffffffffffff82169050919050565b6000819050919050565b82818337600083830152505050565b60005b8381101561268757808201518184015260208101905061266c565b83811115612696576000848401525b50505050565b600060028204905060018216806126b457607f821691505b602082108114156126c8576126c761272e565b5b50919050565b6126d78261278c565b810181811067ffffffffffffffff821117156126f6576126f561275d565b5b80604052505050565b7f4e487b7100000000000000000000000000000000000000000000000000000000600052601160045260246000fd5b7f4e487b7100000000000000000000000000000000000000000000000000000000600052602260045260246000fd5b7f4e487b7100000000000000000000000000000000000000000000000000000000600052604160045260246000fd5b6000601f19601f8301169050919050565b7f4552433732313a2063616c6c6572206973206e6f7420746f6b656e206f776e6560008201527f72206f7220617070726f76656400000000000000000000000000000000000000602082015250565b7f4552433732313a207472616e7366657220746f206e6f6e20455243373231526560008201527f63656976657220696d706c656d656e7465720000000000000000000000000000602082015250565b7f4552433732313a207472616e736665722066726f6d20696e636f72726563742060008201527f6f776e6572000000000000000000000000000000000000000000000000000000602082015250565b7f4552433732313a20746f6b656e20616c7265616479206d696e74656400000000600082015250565b7f4552433732313a207472616e7366657220746f20746865207a65726f2061646460008201527f7265737300000000000000000000000000000000000000000000000000000000602082015250565b7f4552433732313a20617070726f766520746f2063616c6c657200000000000000600082015250565b7f4552433732313a2061646472657373207a65726f206973206e6f74206120766160008201527f6c6964206f776e65720000000000000000000000000000000000000000000000602082015250565b7f45524337323155524953746f726167653a2055524920736574206f66206e6f6e60008201527f6578697374656e7420746f6b656e000000000000000000000000000000000000602082015250565b7f4552433732313a206d696e7420746f20746865207a65726f2061646472657373600082015250565b7f4552433732313a20696e76616c696420746f6b656e2049440000000000000000600082015250565b7f4552433732313a20617070726f76616c20746f2063757272656e74206f776e6560008201527f7200000000000000000000000000000000000000000000000000000000000000602082015250565b7f4552433732313a20617070726f76652063616c6c6572206973206e6f7420746f60008201527f6b656e206f776e6572206f7220617070726f76656420666f7220616c6c000000602082015250565b612ac2816125e6565b8114612acd57600080fd5b50565b612ad9816125f8565b8114612ae457600080fd5b50565b612af081612604565b8114612afb57600080fd5b50565b612b0781612650565b8114612b1257600080fd5b5056fea2646970667358221220ddb08dcd58d032902d0d0ab8b22ea1c94739956681617f92d6c2f7ca7005ef3664736f6c63430008040033",
  "linkReferences": {},
  "deployedLinkReferences": {}
}