{
  "_format": "hh-sol-artifact-1",
  "contractName": "DulliganManager",
  "sourceName": "contracts/DulliganManager.sol",
  "abi": [
    {
      "inputs": [
        {
          "internalType": "address",
          "name": "_nftAddress",
          "type": "address"
        },
        {
          "internalType": "address payable",
          "name": "_dulliger",
          "type": "address"
        },
        {
          "internalType": "address",
          "name": "_dulligie",
          "type": "address"
        },
        {
          "internalType": "address payable",
          "name": "_vendor",
          "type": "address"
        }
      ],
      "stateMutability": "nonpayable",
      "type": "constructor"
    },
    {
      "inputs": [
        {
          "internalType": "uint256",
          "name": "",
          "type": "uint256"
        }
      ],
      "name": "buyer",
      "outputs": [
        {
          "internalType": "address",
          "name": "",
          "type": "address"
        }
      ],
      "stateMutability": "view",
      "type": "function"
    },
    {
      "inputs": [
        {
          "internalType": "uint256",
          "name": "",
          "type": "uint256"
        }
      ],
      "name": "creator",
      "outputs": [
        {
          "internalType": "address",
          "name": "",
          "type": "address"
        }
      ],
      "stateMutability": "view",
      "type": "function"
    },
    {
      "inputs": [
        {
          "internalType": "uint256",
          "name": "_nftID",
          "type": "uint256"
        }
      ],
      "name": "depositEarnest",
      "outputs": [],
      "stateMutability": "payable",
      "type": "function"
    },
    {
      "inputs": [],
      "name": "dulliger",
      "outputs": [
        {
          "internalType": "address payable",
          "name": "",
          "type": "address"
        }
      ],
      "stateMutability": "view",
      "type": "function"
    },
    {
      "inputs": [],
      "name": "dulligie",
      "outputs": [
        {
          "internalType": "address",
          "name": "",
          "type": "address"
        }
      ],
      "stateMutability": "view",
      "type": "function"
    },
    {
      "inputs": [],
      "name": "getBalance",
      "outputs": [
        {
          "internalType": "uint256",
          "name": "",
          "type": "uint256"
        }
      ],
      "stateMutability": "view",
      "type": "function"
    },
    {
      "inputs": [
        {
          "internalType": "uint256",
          "name": "",
          "type": "uint256"
        }
      ],
      "name": "isListed",
      "outputs": [
        {
          "internalType": "bool",
          "name": "",
          "type": "bool"
        }
      ],
      "stateMutability": "view",
      "type": "function"
    },
    {
      "inputs": [
        {
          "internalType": "uint256",
          "name": "_nftID",
          "type": "uint256"
        },
        {
          "internalType": "uint256",
          "name": "_purchasePrice",
          "type": "uint256"
        },
        {
          "internalType": "address",
          "name": "_buyer",
          "type": "address"
        }
      ],
      "name": "list",
      "outputs": [],
      "stateMutability": "payable",
      "type": "function"
    },
    {
      "inputs": [],
      "name": "nftAddress",
      "outputs": [
        {
          "internalType": "address",
          "name": "",
          "type": "address"
        }
      ],
      "stateMutability": "view",
      "type": "function"
    },
    {
      "inputs": [
        {
          "internalType": "uint256",
          "name": "",
          "type": "uint256"
        }
      ],
      "name": "purchasePrice",
      "outputs": [
        {
          "internalType": "uint256",
          "name": "",
          "type": "uint256"
        }
      ],
      "stateMutability": "view",
      "type": "function"
    },
    {
      "inputs": [],
      "name": "vendor",
      "outputs": [
        {
          "internalType": "address payable",
          "name": "",
          "type": "address"
        }
      ],
      "stateMutability": "view",
      "type": "function"
    },
    {
      "stateMutability": "payable",
      "type": "receive"
    }
  ],
  "bytecode": "0x608060405234801561001057600080fd5b5060405162000b8938038062000b898339818101604052810190610034919061016a565b836000806101000a81548173ffffffffffffffffffffffffffffffffffffffff021916908373ffffffffffffffffffffffffffffffffffffffff16021790555082600160006101000a81548173ffffffffffffffffffffffffffffffffffffffff021916908373ffffffffffffffffffffffffffffffffffffffff16021790555081600260006101000a81548173ffffffffffffffffffffffffffffffffffffffff021916908373ffffffffffffffffffffffffffffffffffffffff16021790555080600360006101000a81548173ffffffffffffffffffffffffffffffffffffffff021916908373ffffffffffffffffffffffffffffffffffffffff1602179055505050505061023f565b60008151905061014f81610211565b92915050565b60008151905061016481610228565b92915050565b6000806000806080858703121561018057600080fd5b600061018e87828801610140565b945050602061019f87828801610155565b93505060406101b087828801610140565b92505060606101c187828801610155565b91505092959194509250565b60006101d8826101f1565b9050919050565b60006101ea826101f1565b9050919050565b600073ffffffffffffffffffffffffffffffffffffffff82169050919050565b61021a816101cd565b811461022557600080fd5b50565b610231816101df565b811461023c57600080fd5b50565b61093a806200024f6000396000f3fe6080604052600436106100a05760003560e01c8063510b515811610064578063510b5158146101955780635bf8633a146101d2578063704ecd0e146101fd57806377fbc4ae14610219578063e740f77014610256578063fcce488314610272576100a7565b806312065fe0146100ac5780631385a6f2146100d757806331dbd3f8146101025780634dd4acaf1461012d578063503ac4fb1461016a576100a7565b366100a757005b600080fd5b3480156100b857600080fd5b506100c16102af565b6040516100ce9190610801565b60405180910390f35b3480156100e357600080fd5b506100ec6102b7565b6040516100f99190610774565b60405180910390f35b34801561010e57600080fd5b506101176102dd565b6040516101249190610759565b60405180910390f35b34801561013957600080fd5b50610154600480360381019061014f9190610682565b610303565b6040516101619190610759565b60405180910390f35b34801561017657600080fd5b5061017f610336565b60405161018c9190610774565b60405180910390f35b3480156101a157600080fd5b506101bc60048036038101906101b79190610682565b61035c565b6040516101c99190610759565b60405180910390f35b3480156101de57600080fd5b506101e761038f565b6040516101f49190610759565b60405180910390f35b610217600480360381019061021291906106ab565b6103b3565b005b34801561022557600080fd5b50610240600480360381019061023b9190610682565b61056d565b60405161024d9190610801565b60405180910390f35b610270600480360381019061026b9190610682565b610585565b005b34801561027e57600080fd5b5061029960048036038101906102949190610682565b610638565b6040516102a691906107c6565b60405180910390f35b600047905090565b600360009054906101000a900473ffffffffffffffffffffffffffffffffffffffff1681565b600260009054906101000a900473ffffffffffffffffffffffffffffffffffffffff1681565b60066020528060005260406000206000915054906101000a900473ffffffffffffffffffffffffffffffffffffffff1681565b600160009054906101000a900473ffffffffffffffffffffffffffffffffffffffff1681565b60076020528060005260406000206000915054906101000a900473ffffffffffffffffffffffffffffffffffffffff1681565b60008054906101000a900473ffffffffffffffffffffffffffffffffffffffff1681565b600160009054906101000a900473ffffffffffffffffffffffffffffffffffffffff1673ffffffffffffffffffffffffffffffffffffffff163373ffffffffffffffffffffffffffffffffffffffff1614610443576040517f08c379a000000000000000000000000000000000000000000000000000000000815260040161043a906107e1565b60405180910390fd5b60008054906101000a900473ffffffffffffffffffffffffffffffffffffffff1673ffffffffffffffffffffffffffffffffffffffff166323b872dd3330866040518463ffffffff1660e01b81526004016104a09392919061078f565b600060405180830381600087803b1580156104ba57600080fd5b505af11580156104ce573d6000803e3d6000fd5b5050505060016004600085815260200190815260200160002060006101000a81548160ff021916908315150217905550816005600085815260200190815260200160002081905550806006600085815260200190815260200160002060006101000a81548173ffffffffffffffffffffffffffffffffffffffff021916908373ffffffffffffffffffffffffffffffffffffffff160217905550505050565b60056020528060005260406000206000915090505481565b600160009054906101000a900473ffffffffffffffffffffffffffffffffffffffff1673ffffffffffffffffffffffffffffffffffffffff163373ffffffffffffffffffffffffffffffffffffffff1614610615576040517f08c379a000000000000000000000000000000000000000000000000000000000815260040161060c906107e1565b60405180910390fd5b600560008281526020019081526020016000205434101561063557600080fd5b50565b60046020528060005260406000206000915054906101000a900460ff1681565b600081359050610667816108d6565b92915050565b60008135905061067c816108ed565b92915050565b60006020828403121561069457600080fd5b60006106a28482850161066d565b91505092915050565b6000806000606084860312156106c057600080fd5b60006106ce8682870161066d565b93505060206106df8682870161066d565b92505060406106f086828701610658565b9150509250925092565b6107038161083f565b82525050565b6107128161082d565b82525050565b61072181610851565b82525050565b600061073460228361081c565b915061073f82610887565b604082019050919050565b6107538161087d565b82525050565b600060208201905061076e6000830184610709565b92915050565b600060208201905061078960008301846106fa565b92915050565b60006060820190506107a46000830186610709565b6107b16020830185610709565b6107be604083018461074a565b949350505050565b60006020820190506107db6000830184610718565b92915050565b600060208201905081810360008301526107fa81610727565b9050919050565b6000602082019050610816600083018461074a565b92915050565b600082825260208201905092915050565b60006108388261085d565b9050919050565b600061084a8261085d565b9050919050565b60008115159050919050565b600073ffffffffffffffffffffffffffffffffffffffff82169050919050565b6000819050919050565b7f4f6e6c792064756c6c696765722063616e2063616c6c2074686973206d65746860008201527f6f64000000000000000000000000000000000000000000000000000000000000602082015250565b6108df8161082d565b81146108ea57600080fd5b50565b6108f68161087d565b811461090157600080fd5b5056fea264697066735822122082b4cdd87ee706db3daf4cfb2565993682e83efb7f3c0d1b7721fab3d2548ee164736f6c63430008040033",
  "linkReferences": {},
  "deployedLinkReferences": {}
}