{
  "_format": "hh-sol-artifact-1",
  "contractName": "DulliganManager",
  "sourceName": "contracts/DulliganManager.sol",
  "abi": [
    {
      "inputs": [
        {
          "internalType": "address",
          "name": "_nftAddress",
          "type": "address"
        },
        {
          "internalType": "address",
          "name": "_dulliger",
          "type": "address"
        },
        {
          "internalType": "address",
          "name": "_dulligie",
          "type": "address"
        },
        {
          "internalType": "address payable",
          "name": "_vendor",
          "type": "address"
        }
      ],
      "stateMutability": "nonpayable",
      "type": "constructor"
    },
    {
      "inputs": [
        {
          "internalType": "uint256",
          "name": "",
          "type": "uint256"
        }
      ],
      "name": "buyer",
      "outputs": [
        {
          "internalType": "address",
          "name": "",
          "type": "address"
        }
      ],
      "stateMutability": "view",
      "type": "function"
    },
    {
      "inputs": [],
      "name": "dulliger",
      "outputs": [
        {
          "internalType": "address",
          "name": "",
          "type": "address"
        }
      ],
      "stateMutability": "view",
      "type": "function"
    },
    {
      "inputs": [],
      "name": "dulligie",
      "outputs": [
        {
          "internalType": "address",
          "name": "",
          "type": "address"
        }
      ],
      "stateMutability": "view",
      "type": "function"
    },
    {
      "inputs": [
        {
          "internalType": "uint256",
          "name": "",
          "type": "uint256"
        }
      ],
      "name": "isListed",
      "outputs": [
        {
          "internalType": "bool",
          "name": "",
          "type": "bool"
        }
      ],
      "stateMutability": "view",
      "type": "function"
    },
    {
      "inputs": [
        {
          "internalType": "uint256",
          "name": "_nftID",
          "type": "uint256"
        },
        {
          "internalType": "uint256",
          "name": "_purchasePrice",
          "type": "uint256"
        },
        {
          "internalType": "address",
          "name": "_buyer",
          "type": "address"
        }
      ],
      "name": "list",
      "outputs": [],
      "stateMutability": "nonpayable",
      "type": "function"
    },
    {
      "inputs": [],
      "name": "nftAddress",
      "outputs": [
        {
          "internalType": "address",
          "name": "",
          "type": "address"
        }
      ],
      "stateMutability": "view",
      "type": "function"
    },
    {
      "inputs": [
        {
          "internalType": "uint256",
          "name": "",
          "type": "uint256"
        }
      ],
      "name": "purchasePrice",
      "outputs": [
        {
          "internalType": "uint256",
          "name": "",
          "type": "uint256"
        }
      ],
      "stateMutability": "view",
      "type": "function"
    },
    {
      "inputs": [],
      "name": "vendor",
      "outputs": [
        {
          "internalType": "address payable",
          "name": "",
          "type": "address"
        }
      ],
      "stateMutability": "view",
      "type": "function"
    }
  ],
  "bytecode": "0x608060405234801561001057600080fd5b5060405161086738038061086783398181016040528101906100329190610168565b836000806101000a81548173ffffffffffffffffffffffffffffffffffffffff021916908373ffffffffffffffffffffffffffffffffffffffff16021790555082600160006101000a81548173ffffffffffffffffffffffffffffffffffffffff021916908373ffffffffffffffffffffffffffffffffffffffff16021790555081600260006101000a81548173ffffffffffffffffffffffffffffffffffffffff021916908373ffffffffffffffffffffffffffffffffffffffff16021790555080600360006101000a81548173ffffffffffffffffffffffffffffffffffffffff021916908373ffffffffffffffffffffffffffffffffffffffff1602179055505050505061023d565b60008151905061014d8161020f565b92915050565b60008151905061016281610226565b92915050565b6000806000806080858703121561017e57600080fd5b600061018c8782880161013e565b945050602061019d8782880161013e565b93505060406101ae8782880161013e565b92505060606101bf87828801610153565b91505092959194509250565b60006101d6826101ef565b9050919050565b60006101e8826101ef565b9050919050565b600073ffffffffffffffffffffffffffffffffffffffff82169050919050565b610218816101cb565b811461022357600080fd5b50565b61022f816101dd565b811461023a57600080fd5b50565b61061b8061024c6000396000f3fe608060405234801561001057600080fd5b50600436106100885760003560e01c80635bf8633a1161005b5780635bf8633a14610117578063704ecd0e1461013557806377fbc4ae14610151578063fcce48831461018157610088565b80631385a6f21461008d57806331dbd3f8146100ab5780634dd4acaf146100c9578063503ac4fb146100f9575b600080fd5b6100956101b1565b6040516100a291906104d5565b60405180910390f35b6100b36101d7565b6040516100c091906104ba565b60405180910390f35b6100e360048036038101906100de9190610406565b6101fd565b6040516100f091906104ba565b60405180910390f35b610101610230565b60405161010e91906104ba565b60405180910390f35b61011f610256565b60405161012c91906104ba565b60405180910390f35b61014f600480360381019061014a919061042f565b61027a565b005b61016b60048036038101906101669190610406565b6103a4565b6040516101789190610542565b60405180910390f35b61019b60048036038101906101969190610406565b6103bc565b6040516101a89190610527565b60405180910390f35b600360009054906101000a900473ffffffffffffffffffffffffffffffffffffffff1681565b600260009054906101000a900473ffffffffffffffffffffffffffffffffffffffff1681565b60066020528060005260406000206000915054906101000a900473ffffffffffffffffffffffffffffffffffffffff1681565b600160009054906101000a900473ffffffffffffffffffffffffffffffffffffffff1681565b60008054906101000a900473ffffffffffffffffffffffffffffffffffffffff1681565b60008054906101000a900473ffffffffffffffffffffffffffffffffffffffff1673ffffffffffffffffffffffffffffffffffffffff166323b872dd3330866040518463ffffffff1660e01b81526004016102d7939291906104f0565b600060405180830381600087803b1580156102f157600080fd5b505af1158015610305573d6000803e3d6000fd5b5050505060016004600085815260200190815260200160002060006101000a81548160ff021916908315150217905550816005600085815260200190815260200160002081905550806006600085815260200190815260200160002060006101000a81548173ffffffffffffffffffffffffffffffffffffffff021916908373ffffffffffffffffffffffffffffffffffffffff160217905550505050565b60056020528060005260406000206000915090505481565b60046020528060005260406000206000915054906101000a900460ff1681565b6000813590506103eb816105b7565b92915050565b600081359050610400816105ce565b92915050565b60006020828403121561041857600080fd5b6000610426848285016103f1565b91505092915050565b60008060006060848603121561044457600080fd5b6000610452868287016103f1565b9350506020610463868287016103f1565b9250506040610474868287016103dc565b9150509250925092565b6104878161056f565b82525050565b6104968161055d565b82525050565b6104a581610581565b82525050565b6104b4816105ad565b82525050565b60006020820190506104cf600083018461048d565b92915050565b60006020820190506104ea600083018461047e565b92915050565b6000606082019050610505600083018661048d565b610512602083018561048d565b61051f60408301846104ab565b949350505050565b600060208201905061053c600083018461049c565b92915050565b600060208201905061055760008301846104ab565b92915050565b60006105688261058d565b9050919050565b600061057a8261058d565b9050919050565b60008115159050919050565b600073ffffffffffffffffffffffffffffffffffffffff82169050919050565b6000819050919050565b6105c08161055d565b81146105cb57600080fd5b50565b6105d7816105ad565b81146105e257600080fd5b5056fea26469706673582212200005c7cd287aee84f9d52836433c21d0772ddeab1fc3e968a959afed8cd75f2964736f6c63430008040033",
  "linkReferences": {},
  "deployedLinkReferences": {}
}