{
  "_format": "hh-sol-artifact-1",
  "contractName": "DulliganManager",
  "sourceName": "contracts/DulliganManager.sol",
  "abi": [
    {
      "inputs": [
        {
          "internalType": "address",
          "name": "_nftAddress",
          "type": "address"
        },
        {
          "internalType": "address",
          "name": "_dulliger",
          "type": "address"
        },
        {
          "internalType": "address",
          "name": "_dulligie",
          "type": "address"
        },
        {
          "internalType": "address payable",
          "name": "_vendor",
          "type": "address"
        }
      ],
      "stateMutability": "nonpayable",
      "type": "constructor"
    },
    {
      "inputs": [],
      "name": "dulliger",
      "outputs": [
        {
          "internalType": "address",
          "name": "",
          "type": "address"
        }
      ],
      "stateMutability": "view",
      "type": "function"
    },
    {
      "inputs": [],
      "name": "dulligie",
      "outputs": [
        {
          "internalType": "address",
          "name": "",
          "type": "address"
        }
      ],
      "stateMutability": "view",
      "type": "function"
    },
    {
      "inputs": [],
      "name": "nftAddress",
      "outputs": [
        {
          "internalType": "address",
          "name": "",
          "type": "address"
        }
      ],
      "stateMutability": "view",
      "type": "function"
    },
    {
      "inputs": [],
      "name": "vendor",
      "outputs": [
        {
          "internalType": "address payable",
          "name": "",
          "type": "address"
        }
      ],
      "stateMutability": "view",
      "type": "function"
    }
  ],
  "bytecode": "0x608060405234801561001057600080fd5b5060405161047938038061047983398181016040528101906100329190610168565b836000806101000a81548173ffffffffffffffffffffffffffffffffffffffff021916908373ffffffffffffffffffffffffffffffffffffffff16021790555082600160006101000a81548173ffffffffffffffffffffffffffffffffffffffff021916908373ffffffffffffffffffffffffffffffffffffffff16021790555081600260006101000a81548173ffffffffffffffffffffffffffffffffffffffff021916908373ffffffffffffffffffffffffffffffffffffffff16021790555080600360006101000a81548173ffffffffffffffffffffffffffffffffffffffff021916908373ffffffffffffffffffffffffffffffffffffffff1602179055505050505061023d565b60008151905061014d8161020f565b92915050565b60008151905061016281610226565b92915050565b6000806000806080858703121561017e57600080fd5b600061018c8782880161013e565b945050602061019d8782880161013e565b93505060406101ae8782880161013e565b92505060606101bf87828801610153565b91505092959194509250565b60006101d6826101ef565b9050919050565b60006101e8826101ef565b9050919050565b600073ffffffffffffffffffffffffffffffffffffffff82169050919050565b610218816101cb565b811461022357600080fd5b50565b61022f816101dd565b811461023a57600080fd5b50565b61022d8061024c6000396000f3fe608060405234801561001057600080fd5b506004361061004c5760003560e01c80631385a6f21461005157806331dbd3f81461006f578063503ac4fb1461008d5780635bf8633a146100ab575b600080fd5b6100596100c9565b6040516100669190610198565b60405180910390f35b6100776100ef565b604051610084919061017d565b60405180910390f35b610095610115565b6040516100a2919061017d565b60405180910390f35b6100b361013b565b6040516100c0919061017d565b60405180910390f35b600360009054906101000a900473ffffffffffffffffffffffffffffffffffffffff1681565b600260009054906101000a900473ffffffffffffffffffffffffffffffffffffffff1681565b600160009054906101000a900473ffffffffffffffffffffffffffffffffffffffff1681565b60008054906101000a900473ffffffffffffffffffffffffffffffffffffffff1681565b610168816101c5565b82525050565b610177816101b3565b82525050565b6000602082019050610192600083018461016e565b92915050565b60006020820190506101ad600083018461015f565b92915050565b60006101be826101d7565b9050919050565b60006101d0826101d7565b9050919050565b600073ffffffffffffffffffffffffffffffffffffffff8216905091905056fea2646970667358221220699a1cdf4fd95cae6e2189d6b07c85566e0d6d314cfdcf7940189f5af4408e2464736f6c63430008040033",
  "linkReferences": {},
  "deployedLinkReferences": {}
}