{
  "_format": "hh-sol-artifact-1",
  "contractName": "DulliganManager",
  "sourceName": "contracts/DulliganManager.sol",
  "abi": [
    {
      "inputs": [
        {
          "internalType": "address",
          "name": "_nftAddress",
          "type": "address"
        },
        {
          "internalType": "address payable",
          "name": "_dulliger",
          "type": "address"
        },
        {
          "internalType": "address",
          "name": "_dulligie",
          "type": "address"
        },
        {
          "internalType": "address payable",
          "name": "_vendor",
          "type": "address"
        }
      ],
      "stateMutability": "nonpayable",
      "type": "constructor"
    },
    {
      "inputs": [
        {
          "internalType": "uint256",
          "name": "",
          "type": "uint256"
        }
      ],
      "name": "buyer",
      "outputs": [
        {
          "internalType": "address",
          "name": "",
          "type": "address"
        }
      ],
      "stateMutability": "view",
      "type": "function"
    },
    {
      "inputs": [
        {
          "internalType": "uint256",
          "name": "_nftID",
          "type": "uint256"
        }
      ],
      "name": "depositEarnest",
      "outputs": [],
      "stateMutability": "payable",
      "type": "function"
    },
    {
      "inputs": [],
      "name": "dulliger",
      "outputs": [
        {
          "internalType": "address payable",
          "name": "",
          "type": "address"
        }
      ],
      "stateMutability": "view",
      "type": "function"
    },
    {
      "inputs": [],
      "name": "dulligie",
      "outputs": [
        {
          "internalType": "address",
          "name": "",
          "type": "address"
        }
      ],
      "stateMutability": "view",
      "type": "function"
    },
    {
      "inputs": [
        {
          "internalType": "uint256",
          "name": "",
          "type": "uint256"
        }
      ],
      "name": "dulligieSelected",
      "outputs": [
        {
          "internalType": "bool",
          "name": "",
          "type": "bool"
        }
      ],
      "stateMutability": "view",
      "type": "function"
    },
    {
      "inputs": [],
      "name": "getBalance",
      "outputs": [
        {
          "internalType": "uint256",
          "name": "",
          "type": "uint256"
        }
      ],
      "stateMutability": "view",
      "type": "function"
    },
    {
      "inputs": [
        {
          "internalType": "uint256",
          "name": "",
          "type": "uint256"
        }
      ],
      "name": "isListed",
      "outputs": [
        {
          "internalType": "bool",
          "name": "",
          "type": "bool"
        }
      ],
      "stateMutability": "view",
      "type": "function"
    },
    {
      "inputs": [
        {
          "internalType": "uint256",
          "name": "_nftID",
          "type": "uint256"
        },
        {
          "internalType": "uint256",
          "name": "_purchasePrice",
          "type": "uint256"
        },
        {
          "internalType": "address",
          "name": "_buyer",
          "type": "address"
        }
      ],
      "name": "list",
      "outputs": [],
      "stateMutability": "payable",
      "type": "function"
    },
    {
      "inputs": [],
      "name": "nftAddress",
      "outputs": [
        {
          "internalType": "address",
          "name": "",
          "type": "address"
        }
      ],
      "stateMutability": "view",
      "type": "function"
    },
    {
      "inputs": [
        {
          "internalType": "uint256",
          "name": "",
          "type": "uint256"
        }
      ],
      "name": "purchasePrice",
      "outputs": [
        {
          "internalType": "uint256",
          "name": "",
          "type": "uint256"
        }
      ],
      "stateMutability": "view",
      "type": "function"
    },
    {
      "inputs": [
        {
          "internalType": "uint256",
          "name": "_nftID",
          "type": "uint256"
        },
        {
          "internalType": "bool",
          "name": "_selected",
          "type": "bool"
        }
      ],
      "name": "updateSelectionStatus",
      "outputs": [],
      "stateMutability": "nonpayable",
      "type": "function"
    },
    {
      "inputs": [],
      "name": "vendor",
      "outputs": [
        {
          "internalType": "address payable",
          "name": "",
          "type": "address"
        }
      ],
      "stateMutability": "view",
      "type": "function"
    },
    {
      "stateMutability": "payable",
      "type": "receive"
    }
  ],
  "bytecode": "0x60806040523480156200001157600080fd5b5060405162000d7e38038062000d7e833981810160405281019062000037919062000172565b836000806101000a81548173ffffffffffffffffffffffffffffffffffffffff021916908373ffffffffffffffffffffffffffffffffffffffff16021790555082600160006101000a81548173ffffffffffffffffffffffffffffffffffffffff021916908373ffffffffffffffffffffffffffffffffffffffff16021790555081600260006101000a81548173ffffffffffffffffffffffffffffffffffffffff021916908373ffffffffffffffffffffffffffffffffffffffff16021790555080600360006101000a81548173ffffffffffffffffffffffffffffffffffffffff021916908373ffffffffffffffffffffffffffffffffffffffff160217905550505050506200025a565b600081519050620001558162000226565b92915050565b6000815190506200016c8162000240565b92915050565b600080600080608085870312156200018957600080fd5b6000620001998782880162000144565b9450506020620001ac878288016200015b565b9350506040620001bf8782880162000144565b9250506060620001d2878288016200015b565b91505092959194509250565b6000620001eb8262000206565b9050919050565b6000620001ff8262000206565b9050919050565b600073ffffffffffffffffffffffffffffffffffffffff82169050919050565b6200023181620001de565b81146200023d57600080fd5b50565b6200024b81620001f2565b81146200025757600080fd5b50565b610b14806200026a6000396000f3fe6080604052600436106100ab5760003560e01c80635bf8633a116100645780635bf8633a146101c9578063704ecd0e146101f457806377fbc4ae14610210578063d7af23731461024d578063e740f7701461028a578063fcce4883146102a6576100b2565b806312065fe0146100b75780631385a6f2146100e257806331dbd3f81461010d5780634d1b8015146101385780634dd4acaf14610161578063503ac4fb1461019e576100b2565b366100b257005b600080fd5b3480156100c357600080fd5b506100cc6102e3565b6040516100d99190610975565b60405180910390f35b3480156100ee57600080fd5b506100f76102eb565b60405161010491906108c8565b60405180910390f35b34801561011957600080fd5b50610122610311565b60405161012f91906108ad565b60405180910390f35b34801561014457600080fd5b5061015f600480360381019061015a91906107a0565b610337565b005b34801561016d57600080fd5b5061018860048036038101906101839190610777565b6103f6565b60405161019591906108ad565b60405180910390f35b3480156101aa57600080fd5b506101b3610429565b6040516101c091906108c8565b60405180910390f35b3480156101d557600080fd5b506101de61044f565b6040516101eb91906108ad565b60405180910390f35b61020e600480360381019061020991906107dc565b610473565b005b34801561021c57600080fd5b5061023760048036038101906102329190610777565b61062d565b6040516102449190610975565b60405180910390f35b34801561025957600080fd5b50610274600480360381019061026f9190610777565b610645565b604051610281919061091a565b60405180910390f35b6102a4600480360381019061029f9190610777565b610665565b005b3480156102b257600080fd5b506102cd60048036038101906102c89190610777565b610718565b6040516102da919061091a565b60405180910390f35b600047905090565b600360009054906101000a900473ffffffffffffffffffffffffffffffffffffffff1681565b600260009054906101000a900473ffffffffffffffffffffffffffffffffffffffff1681565b600260009054906101000a900473ffffffffffffffffffffffffffffffffffffffff1673ffffffffffffffffffffffffffffffffffffffff163373ffffffffffffffffffffffffffffffffffffffff16146103c7576040517f08c379a00000000000000000000000000000000000000000000000000000000081526004016103be90610955565b60405180910390fd5b806007600084815260200190815260200160002060006101000a81548160ff0219169083151502179055505050565b60066020528060005260406000206000915054906101000a900473ffffffffffffffffffffffffffffffffffffffff1681565b600160009054906101000a900473ffffffffffffffffffffffffffffffffffffffff1681565b60008054906101000a900473ffffffffffffffffffffffffffffffffffffffff1681565b600160009054906101000a900473ffffffffffffffffffffffffffffffffffffffff1673ffffffffffffffffffffffffffffffffffffffff163373ffffffffffffffffffffffffffffffffffffffff1614610503576040517f08c379a00000000000000000000000000000000000000000000000000000000081526004016104fa90610935565b60405180910390fd5b60008054906101000a900473ffffffffffffffffffffffffffffffffffffffff1673ffffffffffffffffffffffffffffffffffffffff166323b872dd3330866040518463ffffffff1660e01b8152600401610560939291906108e3565b600060405180830381600087803b15801561057a57600080fd5b505af115801561058e573d6000803e3d6000fd5b5050505060016004600085815260200190815260200160002060006101000a81548160ff021916908315150217905550816005600085815260200190815260200160002081905550806006600085815260200190815260200160002060006101000a81548173ffffffffffffffffffffffffffffffffffffffff021916908373ffffffffffffffffffffffffffffffffffffffff160217905550505050565b60056020528060005260406000206000915090505481565b60076020528060005260406000206000915054906101000a900460ff1681565b600160009054906101000a900473ffffffffffffffffffffffffffffffffffffffff1673ffffffffffffffffffffffffffffffffffffffff163373ffffffffffffffffffffffffffffffffffffffff16146106f5576040517f08c379a00000000000000000000000000000000000000000000000000000000081526004016106ec90610935565b60405180910390fd5b600560008281526020019081526020016000205434101561071557600080fd5b50565b60046020528060005260406000206000915054906101000a900460ff1681565b60008135905061074781610a99565b92915050565b60008135905061075c81610ab0565b92915050565b60008135905061077181610ac7565b92915050565b60006020828403121561078957600080fd5b600061079784828501610762565b91505092915050565b600080604083850312156107b357600080fd5b60006107c185828601610762565b92505060206107d28582860161074d565b9150509250929050565b6000806000606084860312156107f157600080fd5b60006107ff86828701610762565b935050602061081086828701610762565b925050604061082186828701610738565b9150509250925092565b610834816109b3565b82525050565b610843816109a1565b82525050565b610852816109c5565b82525050565b6000610865602283610990565b9150610870826109fb565b604082019050919050565b6000610888602283610990565b915061089382610a4a565b604082019050919050565b6108a7816109f1565b82525050565b60006020820190506108c2600083018461083a565b92915050565b60006020820190506108dd600083018461082b565b92915050565b60006060820190506108f8600083018661083a565b610905602083018561083a565b610912604083018461089e565b949350505050565b600060208201905061092f6000830184610849565b92915050565b6000602082019050818103600083015261094e81610858565b9050919050565b6000602082019050818103600083015261096e8161087b565b9050919050565b600060208201905061098a600083018461089e565b92915050565b600082825260208201905092915050565b60006109ac826109d1565b9050919050565b60006109be826109d1565b9050919050565b60008115159050919050565b600073ffffffffffffffffffffffffffffffffffffffff82169050919050565b6000819050919050565b7f4f6e6c792064756c6c696765722063616e2063616c6c2074686973206d65746860008201527f6f64000000000000000000000000000000000000000000000000000000000000602082015250565b7f4f6e6c792064756c6c696769652063616e2063616c6c2074686973206d65746860008201527f6f64000000000000000000000000000000000000000000000000000000000000602082015250565b610aa2816109a1565b8114610aad57600080fd5b50565b610ab9816109c5565b8114610ac457600080fd5b50565b610ad0816109f1565b8114610adb57600080fd5b5056fea2646970667358221220bb205bd0c9fd3cd3ce4d7c00dc6ffd027c7e33670a555b8e7262f32edeb6b2d564736f6c63430008040033",
  "linkReferences": {},
  "deployedLinkReferences": {}
}