{
  "_format": "hh-sol-artifact-1",
  "contractName": "DulliganManager",
  "sourceName": "contracts/DulliganManager.sol",
  "abi": [
    {
      "inputs": [
        {
          "internalType": "address",
          "name": "_nftAddress",
          "type": "address"
        },
        {
          "internalType": "address payable",
          "name": "_vendor",
          "type": "address"
        },
        {
          "internalType": "address",
          "name": "_dulliger",
          "type": "address"
        },
        {
          "internalType": "address",
          "name": "_dulligie",
          "type": "address"
        }
      ],
      "stateMutability": "nonpayable",
      "type": "constructor"
    },
    {
      "inputs": [],
      "name": "dulliger",
      "outputs": [
        {
          "internalType": "address",
          "name": "",
          "type": "address"
        }
      ],
      "stateMutability": "view",
      "type": "function"
    },
    {
      "inputs": [],
      "name": "dulligie",
      "outputs": [
        {
          "internalType": "address",
          "name": "",
          "type": "address"
        }
      ],
      "stateMutability": "view",
      "type": "function"
    },
    {
      "inputs": [],
      "name": "nftAddress",
      "outputs": [
        {
          "internalType": "address",
          "name": "",
          "type": "address"
        }
      ],
      "stateMutability": "view",
      "type": "function"
    },
    {
      "inputs": [],
      "name": "vendor",
      "outputs": [
        {
          "internalType": "address payable",
          "name": "",
          "type": "address"
        }
      ],
      "stateMutability": "view",
      "type": "function"
    }
  ],
  "bytecode": "0x608060405234801561001057600080fd5b5060405161037638038061037683398181016040528101906100329190610065565b5050505061013a565b60008151905061004a8161010c565b92915050565b60008151905061005f81610123565b92915050565b6000806000806080858703121561007b57600080fd5b60006100898782880161003b565b945050602061009a87828801610050565b93505060406100ab8782880161003b565b92505060606100bc8782880161003b565b91505092959194509250565b60006100d3826100ec565b9050919050565b60006100e5826100ec565b9050919050565b600073ffffffffffffffffffffffffffffffffffffffff82169050919050565b610115816100c8565b811461012057600080fd5b50565b61012c816100da565b811461013757600080fd5b50565b61022d806101496000396000f3fe608060405234801561001057600080fd5b506004361061004c5760003560e01c80631385a6f21461005157806331dbd3f81461006f578063503ac4fb1461008d5780635bf8633a146100ab575b600080fd5b6100596100c9565b6040516100669190610198565b60405180910390f35b6100776100ef565b604051610084919061017d565b60405180910390f35b610095610115565b6040516100a2919061017d565b60405180910390f35b6100b361013b565b6040516100c0919061017d565b60405180910390f35b600160009054906101000a900473ffffffffffffffffffffffffffffffffffffffff1681565b600360009054906101000a900473ffffffffffffffffffffffffffffffffffffffff1681565b600260009054906101000a900473ffffffffffffffffffffffffffffffffffffffff1681565b60008054906101000a900473ffffffffffffffffffffffffffffffffffffffff1681565b610168816101c5565b82525050565b610177816101b3565b82525050565b6000602082019050610192600083018461016e565b92915050565b60006020820190506101ad600083018461015f565b92915050565b60006101be826101d7565b9050919050565b60006101d0826101d7565b9050919050565b600073ffffffffffffffffffffffffffffffffffffffff8216905091905056fea26469706673582212201418b293784073af40a8b776889349419cfdadf8be3d1eaf0b53c663ca7c8d0c64736f6c63430008040033",
  "linkReferences": {},
  "deployedLinkReferences": {}
}