{
  "_format": "hh-sol-artifact-1",
  "contractName": "DulliganManager",
  "sourceName": "contracts/DulliganManager.sol",
  "abi": [
    {
      "inputs": [
        {
          "internalType": "address",
          "name": "_nftAddress",
          "type": "address"
        },
        {
          "internalType": "address payable",
          "name": "_dulliger",
          "type": "address"
        },
        {
          "internalType": "address",
          "name": "_dulligie",
          "type": "address"
        },
        {
          "internalType": "address payable",
          "name": "_vendor",
          "type": "address"
        }
      ],
      "stateMutability": "nonpayable",
      "type": "constructor"
    },
    {
      "inputs": [
        {
          "internalType": "uint256",
          "name": "",
          "type": "uint256"
        },
        {
          "internalType": "address",
          "name": "",
          "type": "address"
        }
      ],
      "name": "approval",
      "outputs": [
        {
          "internalType": "bool",
          "name": "",
          "type": "bool"
        }
      ],
      "stateMutability": "view",
      "type": "function"
    },
    {
      "inputs": [
        {
          "internalType": "uint256",
          "name": "_nftID",
          "type": "uint256"
        }
      ],
      "name": "approveSale",
      "outputs": [],
      "stateMutability": "nonpayable",
      "type": "function"
    },
    {
      "inputs": [
        {
          "internalType": "uint256",
          "name": "",
          "type": "uint256"
        }
      ],
      "name": "buyer",
      "outputs": [
        {
          "internalType": "address",
          "name": "",
          "type": "address"
        }
      ],
      "stateMutability": "view",
      "type": "function"
    },
    {
      "inputs": [
        {
          "internalType": "uint256",
          "name": "_nftID",
          "type": "uint256"
        }
      ],
      "name": "depositEarnest",
      "outputs": [],
      "stateMutability": "payable",
      "type": "function"
    },
    {
      "inputs": [],
      "name": "dulliger",
      "outputs": [
        {
          "internalType": "address payable",
          "name": "",
          "type": "address"
        }
      ],
      "stateMutability": "view",
      "type": "function"
    },
    {
      "inputs": [],
      "name": "dulligie",
      "outputs": [
        {
          "internalType": "address",
          "name": "",
          "type": "address"
        }
      ],
      "stateMutability": "view",
      "type": "function"
    },
    {
      "inputs": [
        {
          "internalType": "uint256",
          "name": "",
          "type": "uint256"
        }
      ],
      "name": "dulligieSelected",
      "outputs": [
        {
          "internalType": "bool",
          "name": "",
          "type": "bool"
        }
      ],
      "stateMutability": "view",
      "type": "function"
    },
    {
      "inputs": [
        {
          "internalType": "uint256",
          "name": "_nftID",
          "type": "uint256"
        }
      ],
      "name": "finalizeSale",
      "outputs": [],
      "stateMutability": "nonpayable",
      "type": "function"
    },
    {
      "inputs": [],
      "name": "getBalance",
      "outputs": [
        {
          "internalType": "uint256",
          "name": "",
          "type": "uint256"
        }
      ],
      "stateMutability": "view",
      "type": "function"
    },
    {
      "inputs": [
        {
          "internalType": "uint256",
          "name": "",
          "type": "uint256"
        }
      ],
      "name": "isListed",
      "outputs": [
        {
          "internalType": "bool",
          "name": "",
          "type": "bool"
        }
      ],
      "stateMutability": "view",
      "type": "function"
    },
    {
      "inputs": [
        {
          "internalType": "uint256",
          "name": "_nftID",
          "type": "uint256"
        },
        {
          "internalType": "uint256",
          "name": "_purchasePrice",
          "type": "uint256"
        },
        {
          "internalType": "address",
          "name": "_buyer",
          "type": "address"
        }
      ],
      "name": "list",
      "outputs": [],
      "stateMutability": "payable",
      "type": "function"
    },
    {
      "inputs": [],
      "name": "nftAddress",
      "outputs": [
        {
          "internalType": "address",
          "name": "",
          "type": "address"
        }
      ],
      "stateMutability": "view",
      "type": "function"
    },
    {
      "inputs": [
        {
          "internalType": "uint256",
          "name": "",
          "type": "uint256"
        }
      ],
      "name": "purchasePrice",
      "outputs": [
        {
          "internalType": "uint256",
          "name": "",
          "type": "uint256"
        }
      ],
      "stateMutability": "view",
      "type": "function"
    },
    {
      "inputs": [
        {
          "internalType": "uint256",
          "name": "_nftID",
          "type": "uint256"
        },
        {
          "internalType": "bool",
          "name": "_selected",
          "type": "bool"
        }
      ],
      "name": "updateSelectionStatus",
      "outputs": [],
      "stateMutability": "nonpayable",
      "type": "function"
    },
    {
      "inputs": [],
      "name": "vendor",
      "outputs": [
        {
          "internalType": "address payable",
          "name": "",
          "type": "address"
        }
      ],
      "stateMutability": "view",
      "type": "function"
    },
    {
      "stateMutability": "payable",
      "type": "receive"
    }
  ],
  "bytecode": "0x60806040523480156200001157600080fd5b50604051620011d9380380620011d9833981810160405281019062000037919062000172565b836000806101000a81548173ffffffffffffffffffffffffffffffffffffffff021916908373ffffffffffffffffffffffffffffffffffffffff16021790555082600160006101000a81548173ffffffffffffffffffffffffffffffffffffffff021916908373ffffffffffffffffffffffffffffffffffffffff16021790555081600260006101000a81548173ffffffffffffffffffffffffffffffffffffffff021916908373ffffffffffffffffffffffffffffffffffffffff16021790555080600360006101000a81548173ffffffffffffffffffffffffffffffffffffffff021916908373ffffffffffffffffffffffffffffffffffffffff160217905550505050506200025a565b600081519050620001558162000226565b92915050565b6000815190506200016c8162000240565b92915050565b600080600080608085870312156200018957600080fd5b6000620001998782880162000144565b9450506020620001ac878288016200015b565b9350506040620001bf8782880162000144565b9250506060620001d2878288016200015b565b91505092959194509250565b6000620001eb8262000206565b9050919050565b6000620001ff8262000206565b9050919050565b600073ffffffffffffffffffffffffffffffffffffffff82169050919050565b6200023181620001de565b81146200023d57600080fd5b50565b6200024b81620001f2565b81146200025757600080fd5b50565b610f6f806200026a6000396000f3fe6080604052600436106100ec5760003560e01c80635bf8633a1161008a578063b848de3511610059578063b848de35146102e0578063d7af23731461031d578063e740f7701461035a578063fcce488314610376576100f3565b80635bf8633a14610233578063704ecd0e1461025e57806377fbc4ae1461027a578063aa929380146102b7576100f3565b806331dbd3f8116100c657806331dbd3f8146101775780634d1b8015146101a25780634dd4acaf146101cb578063503ac4fb14610208576100f3565b806312065fe0146100f85780631385a6f21461012357806314a72feb1461014e576100f3565b366100f357005b600080fd5b34801561010457600080fd5b5061010d6103b3565b60405161011a9190610dc2565b60405180910390f35b34801561012f57600080fd5b506101386103bb565b6040516101459190610d15565b60405180910390f35b34801561015a57600080fd5b5061017560048036038101906101709190610b50565b6103e1565b005b34801561018357600080fd5b5061018c61044d565b6040516101999190610cfa565b60405180910390f35b3480156101ae57600080fd5b506101c960048036038101906101c49190610bb5565b610473565b005b3480156101d757600080fd5b506101f260048036038101906101ed9190610b50565b610532565b6040516101ff9190610cfa565b60405180910390f35b34801561021457600080fd5b5061021d610565565b60405161022a9190610d15565b60405180910390f35b34801561023f57600080fd5b5061024861058b565b6040516102559190610cfa565b60405180910390f35b61027860048036038101906102739190610bf1565b6105af565b005b34801561028657600080fd5b506102a1600480360381019061029c9190610b50565b610769565b6040516102ae9190610dc2565b60405180910390f35b3480156102c357600080fd5b506102de60048036038101906102d99190610b50565b610781565b005b3480156102ec57600080fd5b5061030760048036038101906103029190610b79565b6109ef565b6040516103149190610d67565b60405180910390f35b34801561032957600080fd5b50610344600480360381019061033f9190610b50565b610a1e565b6040516103519190610d67565b60405180910390f35b610374600480360381019061036f9190610b50565b610a3e565b005b34801561038257600080fd5b5061039d60048036038101906103989190610b50565b610af1565b6040516103aa9190610d67565b60405180910390f35b600047905090565b600360009054906101000a900473ffffffffffffffffffffffffffffffffffffffff1681565b60016008600083815260200190815260200160002060003373ffffffffffffffffffffffffffffffffffffffff1673ffffffffffffffffffffffffffffffffffffffff16815260200190815260200160002060006101000a81548160ff02191690831515021790555050565b600260009054906101000a900473ffffffffffffffffffffffffffffffffffffffff1681565b600260009054906101000a900473ffffffffffffffffffffffffffffffffffffffff1673ffffffffffffffffffffffffffffffffffffffff163373ffffffffffffffffffffffffffffffffffffffff1614610503576040517f08c379a00000000000000000000000000000000000000000000000000000000081526004016104fa90610da2565b60405180910390fd5b806007600084815260200190815260200160002060006101000a81548160ff0219169083151502179055505050565b60066020528060005260406000206000915054906101000a900473ffffffffffffffffffffffffffffffffffffffff1681565b600160009054906101000a900473ffffffffffffffffffffffffffffffffffffffff1681565b60008054906101000a900473ffffffffffffffffffffffffffffffffffffffff1681565b600160009054906101000a900473ffffffffffffffffffffffffffffffffffffffff1673ffffffffffffffffffffffffffffffffffffffff163373ffffffffffffffffffffffffffffffffffffffff161461063f576040517f08c379a000000000000000000000000000000000000000000000000000000000815260040161063690610d82565b60405180910390fd5b60008054906101000a900473ffffffffffffffffffffffffffffffffffffffff1673ffffffffffffffffffffffffffffffffffffffff166323b872dd3330866040518463ffffffff1660e01b815260040161069c93929190610d30565b600060405180830381600087803b1580156106b657600080fd5b505af11580156106ca573d6000803e3d6000fd5b5050505060016004600085815260200190815260200160002060006101000a81548160ff021916908315150217905550816005600085815260200190815260200160002081905550806006600085815260200190815260200160002060006101000a81548173ffffffffffffffffffffffffffffffffffffffff021916908373ffffffffffffffffffffffffffffffffffffffff160217905550505050565b60056020528060005260406000206000915090505481565b6007600082815260200190815260200160002060009054906101000a900460ff166107ab57600080fd5b6008600082815260200190815260200160002060006006600084815260200190815260200160002060009054906101000a900473ffffffffffffffffffffffffffffffffffffffff1673ffffffffffffffffffffffffffffffffffffffff1673ffffffffffffffffffffffffffffffffffffffff16815260200190815260200160002060009054906101000a900460ff1661084557600080fd5b600560008281526020019081526020016000205447101561086557600080fd5b60006004600083815260200190815260200160002060006101000a81548160ff0219169083151502179055506000600360009054906101000a900473ffffffffffffffffffffffffffffffffffffffff1673ffffffffffffffffffffffffffffffffffffffff16476040516108d990610ce5565b60006040518083038185875af1925050503d8060008114610916576040519150601f19603f3d011682016040523d82523d6000602084013e61091b565b606091505b505090508061092957600080fd5b60008054906101000a900473ffffffffffffffffffffffffffffffffffffffff1673ffffffffffffffffffffffffffffffffffffffff166323b872dd306006600086815260200190815260200160002060009054906101000a900473ffffffffffffffffffffffffffffffffffffffff16856040518463ffffffff1660e01b81526004016109b993929190610d30565b600060405180830381600087803b1580156109d357600080fd5b505af11580156109e7573d6000803e3d6000fd5b505050505050565b60086020528160005260406000206020528060005260406000206000915091509054906101000a900460ff1681565b60076020528060005260406000206000915054906101000a900460ff1681565b600160009054906101000a900473ffffffffffffffffffffffffffffffffffffffff1673ffffffffffffffffffffffffffffffffffffffff163373ffffffffffffffffffffffffffffffffffffffff1614610ace576040517f08c379a0000000000000000000000000000000000000000000000000000000008152600401610ac590610d82565b60405180910390fd5b6005600082815260200190815260200160002054341015610aee57600080fd5b50565b60046020528060005260406000206000915054906101000a900460ff1681565b600081359050610b2081610ef4565b92915050565b600081359050610b3581610f0b565b92915050565b600081359050610b4a81610f22565b92915050565b600060208284031215610b6257600080fd5b6000610b7084828501610b3b565b91505092915050565b60008060408385031215610b8c57600080fd5b6000610b9a85828601610b3b565b9250506020610bab85828601610b11565b9150509250929050565b60008060408385031215610bc857600080fd5b6000610bd685828601610b3b565b9250506020610be785828601610b26565b9150509250929050565b600080600060608486031215610c0657600080fd5b6000610c1486828701610b3b565b9350506020610c2586828701610b3b565b9250506040610c3686828701610b11565b9150509250925092565b610c4981610e0b565b82525050565b610c5881610df9565b82525050565b610c6781610e1d565b82525050565b6000610c7a602283610de8565b9150610c8582610e53565b604082019050919050565b6000610c9d602283610de8565b9150610ca882610ea2565b604082019050919050565b6000610cc0600083610ddd565b9150610ccb82610ef1565b600082019050919050565b610cdf81610e49565b82525050565b6000610cf082610cb3565b9150819050919050565b6000602082019050610d0f6000830184610c4f565b92915050565b6000602082019050610d2a6000830184610c40565b92915050565b6000606082019050610d456000830186610c4f565b610d526020830185610c4f565b610d5f6040830184610cd6565b949350505050565b6000602082019050610d7c6000830184610c5e565b92915050565b60006020820190508181036000830152610d9b81610c6d565b9050919050565b60006020820190508181036000830152610dbb81610c90565b9050919050565b6000602082019050610dd76000830184610cd6565b92915050565b600081905092915050565b600082825260208201905092915050565b6000610e0482610e29565b9050919050565b6000610e1682610e29565b9050919050565b60008115159050919050565b600073ffffffffffffffffffffffffffffffffffffffff82169050919050565b6000819050919050565b7f4f6e6c792064756c6c696765722063616e2063616c6c2074686973206d65746860008201527f6f64000000000000000000000000000000000000000000000000000000000000602082015250565b7f4f6e6c792064756c6c696769652063616e2063616c6c2074686973206d65746860008201527f6f64000000000000000000000000000000000000000000000000000000000000602082015250565b50565b610efd81610df9565b8114610f0857600080fd5b50565b610f1481610e1d565b8114610f1f57600080fd5b50565b610f2b81610e49565b8114610f3657600080fd5b5056fea264697066735822122000162e089b12548ce105c8cd9fc5ab8113356abe3bd66588b22024ace1af1f0364736f6c63430008040033",
  "linkReferences": {},
  "deployedLinkReferences": {}
}